:020000040800F2
:10000000F84700200101000803250008851E0008AC
:1000100001250008A90C0008612A00080000000062
:10002000000000000000000000000000452500085E
:10003000AB0C0008000000006F0100084725000815
:100040001B0100081B0100081B0100081B01000820
:100050001B0100081B0100081B0100081B01000810
:100060001B0100081B0100081B0100081B01000800
:100070001B0100081B0100081B0100081B010008F0
:100080001B0100081B0100081B0100081B010008E0
:100090001B0100081B0100081B0100081B010008D0
:1000A0001B0100081B0100081B0100081B010008C0
:1000B0001B0100081B0100081B0100081B010008B0
:1000C0001B0100081B0100081B0100081B010008A0
:1000D0001B010008FD290008312A00081B01000847
:1000E0001B0100081B0100081B010008DFF80CD0F1
:1000F00000F006FC00480047D9480008F8470020F7
:100100000648804706480047FEE7FEE7FEE7FEE7B1
:10011000FEE7FEE7FEE7FEE7FEE7FEE769250008EB
:10012000ED00000872B6704762B67047EFF31080BA
:1001300072B6704780F310887047B0FA80F070474D
:1001400017484FF0FF010170002080F3098815481F
:100150004FF08051016062B6FEE712484FF08051C7
:10016000016070470F484FF080510160704772B6D0
:10017000EFF3098028B1203880E8F00F0A490968B8
:100180000860094809490A680260106890E8F00FA1
:10019000203080F309884EF0040E62B6704700BF2D
:1001A00022ED00E004ED00E05000002054000020AB
:1001B0002DE9F05F0546002092469B46884606469C
:1001C000814640241BE0284641464746224600F02F
:1001D00020F853465A46C01A914110D3114618468A
:1001E000224600F0A3F92D1A67EB01084F4622467C
:1001F0000120002100F09AF917EB00094E41201E62
:10020000A4F10104DFDC484631462A464346BDE8F6
:10021000F09F202A04DB203A21FA02F000217047E7
:1002200021FA02F3D040C2F120029140084319465E
:10023000704700000649074A0868504343F23902F4
:10024000104408604008704701490860704700008A
:10025000900000206D4EC64140EA01039B0703D089
:1002600009E008C9121F08C0042AFAD203E011F8F5
:10027000013B00F8013B521EF9D27047D2B201E0B7
:1002800000F8012B491EFBD270470022F6E710B59B
:1002900013460A4604461946FFF7F0FF204610BDF4
:1002A00030B505462A460B4612F8010B13F8014BF0
:1002B00008B1A042F8D01CB1002802D06D1CF1E7B3
:1002C000284630BD421C10F8011B0029FBD1801AC2
:1002D000704730B505460020034600E05B1C9342A2
:1002E00005D2EC5CC85C201A01D1002CF6D130BDDF
:1002F0000FB400B58DB010A909900B9000914FF08C
:10030000FF300A9000200C900548069005480790A1
:100310006A4609A80F9900F01FF90DB05DF814FBAB
:1003200075050008930500082DE9FF5FD2E901A7D4
:100330004FF00008916999461446DDF838B04646FA
:1003400001988847054659EA0B0005D009E0A169E4
:10035000761C019888470546216A28468847002868
:10036000F5D1681C03D05FEACA7005D015E04FF0E4
:10037000FF3004B0BDE8F09F2068011D2160D0F877
:1003800000800AE05FEACA7001D108F8015BA16948
:10039000761C7F1E019888470546002F1ADD681CD1
:1003A00018D0B9F1000F0DD0E81705EBD06042115D
:1003B00020F01F0059F822102A1A01209040014213
:1003C000E0D107E0BBF1000FDCD1216A2846884765
:1003D0000028D7D0E16901988847BBF1000F07D109
:1003E000002E05DD5FEACA7002D1002188F80010F6
:1003F000A068B84203DDBBF1000F03D017B16FF066
:100400000100B6E73046B4E72DE9F04D81EA030478
:1004100004F0004B21F0004514464FF0000A23F091
:10042000004150EA050220D054EA01021DD0C5F374
:100430000A570246C5F31303C1F31300C1F30A566A
:1004400040F4801543F48013A7EB0608101BD64632
:1004500008F2FD3873EB050002D308F1010801E052
:1004600092185B41B8F1000F03DA00200146BDE8A5
:10047000F08D00204FF48011064684460EE0171BD5
:1004800073EB050705D3121B63EB050306434CEA28
:10049000010C49084FEA300092185B4150EA01070D
:1004A000EDD152EA030012D082EA040083EA05018A
:1004B000084305D0101BAB4106D20122002306E001
:1004C00000224FF0004302E06FF0010253101AEBDC
:1004D00006004CEB085110EB0A0041EB0B01BDE8A4
:1004E000F04D00F067B80EB540F2334102910021A3
:1004F000CDE900110A460B4600F06BF803B000BDD1
:1005000030B50B46014600202022012409E021FAE3
:1005100002F59D4205D303FA02F5491B04FA02F5E0
:100520002844151EA2F10102F1DC30BD202A04DBB3
:10053000203A00FA02F1002070479140C2F12003F6
:1005400020FA03F3194390407047000002681144F9
:100550001378016018467047D1600449516104491D
:10056000116200211161114600F0F4B94D05000837
:1005700049090008426842B1016811F8013B23B102
:10058000521EC0E90012184670470121C160881E42
:10059000704742685AB1C368016843B983688B42A7
:1005A00005D0491E521CC0E90012002070474FF0D0
:1005B000FF30704710B5141E73F1000408DA401CB8
:1005C00041F1000192185B411A4301D120F0010072
:1005D00010BD2DE9F04D92469B4611B1B1FA81F262
:1005E00002E0B0FA80F220329046FFF79FFF044607
:1005F0000F4640EA0A0041EA0B0153465A460843B7
:1006000013D0114653EA010019D0C8F140025046F8
:10061000FFF7FFFD05460E46504659464246FFF796
:1006200085FF084305D0012004E020463946BDE897
:10063000F08D0020054346EAE0762C4337430A98C4
:100640006305E40AA0EB08000022FD0A44EA4754CF
:100650000A3002D500200146E9E701051019694179
:10066000DDE9084500196941BDE8F04DA2E72DE933
:10067000FE4F804681EA0300C00F0C46009021F037
:10068000004123F00045B8EB0200A94105D24046E5
:10069000214690461C460B46024623F0004010437C
:1006A00047D0270DC7F30A00C3F30A510290401A3E
:1006B000019040286BDAC3F3130040F4801B0098CC
:1006C000924620B10023D2EB030A63EB0B0B019897
:1006D0005946C0F140025046FFF728FF06460D4636
:1006E00050465946019A00F01DF910EB080061418F
:1006F000002487EA115284EAE7731A4340D0009A33
:1007000062B3019A012A4FEA075215DC001B61EB24
:1007100002014FF0004202EA0752CDE90042001CFC
:1007200041F5801132462B46FFF753FF03B0BDE879
:10073000F08F40462146F9E7001B61EB0201001CE7
:1007400041F5801300185B412018A2F5001747EB14
:10075000030140EAD570B6196D4111E06D084FEA0A
:10076000360645EAC0754FEA0752001B61EB0201ED
:10077000001C41F5801149084FEA30000019514131
:1007800032462B4603B0BDE8F04FFFF713BF009889
:10079000012240000023D0EB020263EBE0730098DB
:1007A00021464FEAE074B8EB000061EB0401E9E791
:1007B00083F000435BE781F0004158E72DE9FE4FED
:1007C00081EA030404F0004421F0004100944FF05A
:1007D000000B23F0004350EA01045ED052EA030408
:1007E0005BD0C3F30A54C1F30A552C44A4F2F3348A
:1007F0000194A0FB0254C1F3130141F48011C3F32F
:10080000130343F4801301FB024400FB034E840AEC
:10081000970A44EA815447EA8357A4FB0768029584
:100820008D0A05FB07854FEA932C04FB0C54270522
:10083000029D4FEA065847EA1637B5EB08056EEBFE
:10084000070C870E920E47EA811742EA8312A7FB34
:100850000201B6EB0B0164EB00042B0D43EA0C33F1
:100860005E1844EB1C50DA465146E7FB0201C5F323
:1008700013044FEA0B3343EA14534FEA0432019C4A
:1008800043EA0603A4F10C040294009CCDE900B4F1
:10089000FFF79FFE03B0BDE8F08F00200146F9E7A7
:1008A000C1F30A52C1F3130140F2FF3341F4801146
:1008B0009A4202DA00200146704740F233439A42DE
:1008C000A2F2334202DC5242FFF7A3BCFFF72EBE76
:1008D00030B5041E71F1000404DB4FF000444042C7
:1008E00064EB0101141E73F1000405DB1C464FF09C
:1008F0000043524263EB0403994208BF904230BD6B
:10090000064C074D06E0E06840F0010394E807005C
:1009100098471034AC42F6D3FFF7ECFBC4830008D1
:10092000E4830008202A06DBCB17203A41FA02F0C4
:1009300043EAE07306E041FA02F3D040C2F120023C
:100940009140084319467047C0B24FF4F05100F08F
:1009500097B900002DE9F34F8BB04FF0000801F17B
:100960000C000C464FF0010B46460DF1080A0190B1
:100970006269012101989047051E2DD0252D2CD0AC
:10098000216A8847C0B16269012101989047216AB4
:1009900088470028F7D1411E62690198904700E01E
:1009A000761CA1690B988847216A88470028F7D1EF
:1009B000E1690B988847DBE7A1690B9888470746F0
:1009C000A84201D1761CD3E7E1690B9888477F1CC8
:1009D00002D1B8F1000F6FD046E1002762693D46B1
:1009E0003946019890472A2804D16269012101986B
:1009F00090470125DFF884926269012101989047B0
:100A0000A0F130010A290AD24F45E5DC07EB870146
:100A100000EB4107303FDFD445F01005ECE7E90675
:100A200001D46FF000476C280AD04C2814D06828F5
:100A300015D06A280DD074281CD07A281AD01DE051
:100A400062690121019890476C2802D045F00405A5
:100A500014E045F002050DE045F020050AE062696A
:100A6000012101989047682802D045F0080505E06B
:100A700045F400656269012101989047C4E9015776
:100A800065283DD019DC58287AD00CDC452837D0B1
:100A900004DC252826D0412831D131E046282FD04A
:100AA00047282CD12CE05B2877D0612828D06328F8
:100AB0007CD0642823D15AE0D0E06F2848D008DCED
:100AC00066281DD067281BD0692821D06E2816D132
:100AD00027E0702845D0732868D0752847D078283B
:100AE0000DD14DE0A1690B988847054625283FF4B4
:100AF00069AFE1690B9888476D1C3FF46AAFB3E0BA
:100B000023466A466FF001000B99AFF300809EE028
:100B100045F040006060A80723464FF0000236D43D
:100B20003EE0E8077FF447AF2068011D21600068C0
:100B3000290501D506701BE7290701D5068017E7AF
:100B4000A90703D5F117C0E9006111E706600FE7B7
:100B500045F040006060A80723464FF0080216D415
:100B60001EE040F60E0125EA0100606016E045F047
:100B700040006060A80723464FF00A0207D40FE048
:100B800045F040006060A80708D5234610226FF0AA
:100B900001000B99AFF3008059E007E023461022D3
:100BA0006FF001000B99AFF3008050E04FF00009A7
:100BB0004F464B46632802D05B2806D040E0E8064B
:100BC00001D40120A06001273AE062690121019867
:100BD00090475E2805D14FF00109626949460198A6
:100BE0009047216939B900210A46534643F821202C
:100BF000491C0829FADBB0B3216969B9C11700EBB8
:100C0000D16253110AEB830122F01F02821A0120E4
:100C10000B68904003430B60626901210198904783
:100C20005D28E8D1B9F1000F09D00020514651F8F4
:100C30002020D24341F82020401C0828F7DB02ABDB
:100C4000224600976FF001000B99FFF76DFB00281B
:100C50000CDA401C08D1BBF1000F05D04FF0FF307B
:100C60000DB0BDE8F08FFFE74046F9E7E90701D195
:100C700008F1010806444FF0000B79E6CCCCCC0C0F
:100C80007F2801D9002208E0064A02EB5002C00783
:100C9000127800D1120902F00F02012090400840A2
:100CA0007047000031830008FEE77047FEE731B56A
:100CB00000F00CF9044600F009F90099001B884285
:100CC000F9D338BD2DE9F84F00230024DFF8C09197
:100CD0004FF00F0809F1040A0AF1040B0BF1040E9E
:100CE0000127A7400A683A40BA4275D1DFF8A4C18B
:100CF0004D68A5EB0C0665452BD00DDC032D34D0DB
:100D000005DC35B3012D19D0022D2FD11BE0112D9B
:100D100016D0122D2AD119E0B6F5881F19D006DC9D
:100D2000B6F5803F15D0B6F5801F1FD111E0B6F59E
:100D3000001F0ED0B6F5041F18D10AE0CB6815E0ED
:100D4000CB681B1D12E0CB6808330FE0CB680C3377
:100D50000CE08B6823B1012B04D00823476105E028
:100D6000042303E00823076100E00023FF2A01D8E1
:100D7000054601E000F1040502D84FEA840603E0CD
:100D8000A4F108064FEA86062F6808FA06FC27EA4F
:100D90000C0703FA06F647EA06072F604D68ED00D8
:100DA00070D53D4DAE6946F00106AE61AD6905F006
:100DB00001050095394D24F003067719BE68A50793
:100DC0002D0F08FA05FC26EA0C06DFF8D4C06045B2
:100DD00003D14FF0000C17E054E0DFF8C8C06045C5
:100DE00002D14FF0010C0FE0DFF8BCC0604502D12A
:100DF0004FF0020C08E0DFF8B4C0604502D14FF0BC
:100E0000030C01E04FF0040C0CFA05FC4CEA060C54
:100E1000C7F808C04D68ED0305D5D9F80050154353
:100E2000C9F8005004E0D9F800509543C9F80050C3
:100E30004D68AD0305D5DAF800501543CAF80050E7
:100E400004E0DAF800509543CAF800504D68ED020E
:100E500005D5DBF800501543CBF8005004E0DBF873
:100E600000509543CBF800504D68AD0205D5DEF833
:100E700000501543CEF8005004E0DEF800509543D2
:100E8000CEF80050641C102CFFF42AAFBDE8F88F98
:100E90000004014000001110001002400000014059
:100EA00000080140000C0140001001400014014006
:100EB0008068084201D00120704700207047002A56
:100EC00001D0016170470904016170470148006861
:100ED000704700000000002002480168491C0160C2
:100EE000704700000000002010B50748016841F07D
:100EF00010010160032000F087F8002000F006F8E0
:100F000000F016F8002010BD0020024010B5044685
:100F100000F07CF94FF47A72B0FBF2F000F0F3FCD1
:100F200000222146501E00F04FF8002010BD0000A6
:100F300008B51D48816941F001018161806900F0B7
:100F400001000090032000F05FF8002211466FF0CE
:100F50000B0000F039F8002211466FF00A0000F093
:100F600033F8002211466FF0090000F02DF800223E
:100F70001146501F00F028F800221146101F00F003
:100F800023F800221146901E00F01EF800221146A0
:100F9000501E00F019F80548416821F0E06141F069
:100FA0000071416008BD00000010024000000140D7
:100FB00000F01F02012191404009800000F1E02073
:100FC000C0F8001170470000F0B40D460D4B1B68CF
:100FD000C3F30223C3F10704042C00D90424191D10
:100FE000072901D2002300E0DB1E012606FA04F1E6
:100FF000491E294099409E40761E16403143F0BC60
:1010000001F080BA0CED00E000F00701054A10681D
:101010004FF6FF03184040EA0120034908431060DF
:10102000704700000CED00E00000FA052DE9F047E4
:1010300004460E46DFF8C481D8F8000000F007002F
:10104000B0420FD2D8F8000020F007003043C8F8B3
:101050000000D8F8000000F00700B04202D00120E4
:10106000BDE8F0872078664F800705D57868A168CD
:1010700020F0F000084378602078C00768D06068EE
:10108000012201280CD0022822D0022393FAA3F1D6
:10109000B1FA81F141F02001490931D0396830E0DD
:1010A0004FF4003393FAA3F1B1FA81F141F020013A
:1010B000490901D0396800E0796A93FAA3F3B3FAD9
:1010C00083F303F01F039A40114225D10120C7E7A3
:1010D0004FF0007393FAA3F1B1FA81F141F02001CE
:1010E000490901D0396800E0796A93FAA3F3B3FAA9
:1010F00083F303F01F039A4011420DD10120AFE7A3
:10110000796A93FAA3F3B3FA83F303F01F039A40C7
:10111000114201D10120A3E7796821F003010143C5
:101120007960FFF7D3FE0546606841F288390128EF
:1011300009D0022814D020E0FFF7C8FE401B484524
:1011400001D903208CE77868C0F381000128F3D12E
:1011500017E0FFF7BBFE401B484501D903207FE79E
:101160007868C0F381000228F3D10AE0FFF7AEFEF1
:10117000401B484501D9032072E7786810F00C0F36
:10118000F4D1D8F8000000F00700B0420ED9D8F82A
:10119000000020F007003043C8F80000D8F8000035
:1011A00000F00700B04201D0012059E72078400745
:1011B00005D57868E16820F4E0600843786020781D
:1011C000000706D57868216920F4605040EAC10024
:1011D000786000F04DF87968F02292FAA2F201F0FE
:1011E000F001B2FA82F2D140064A515CC840064989
:1011F00008600020FFF78AFE002031E7002002404F
:1012000000100240F481000804000020014800683A
:10121000704700000400002000B5FFF7F7FF074902
:1012200049684FF4E06292FAA2F201F4E061B2FA86
:1012300082F2D140024A515CC84000BD0010024019
:101240000482000800B5FFF7E1FF074949684FF441
:10125000605292FAA2F201F46051B2FA82F2D140E5
:10126000024A515CC84000BD0010024004820008E0
:1012700010B585B01AA0D0E90031D0E90220CDE93F
:101280000131CDE903201AA000680090194B59687C
:10129000194801F00C02042A1DD0082A1BD14FF472
:1012A000701494FAA4F401F47012B4FA84F4E240D5
:1012B00001ACA25CC90310D559684FF4003393FA0E
:1012C000A3F301F40031B3FA83F3D9401DF8011000
:1012D000B0FBF1F0504305B010BD08485043FAE7A9
:1012E00002030405060708090A0B0C0D0E0F101067
:1012F000010200000010024000127A0000093D00C7
:101300002DE9F84F0446F84F20784FF00105C0074B
:1013100054D078686E04C0F38100012807D0786843
:10132000C0F3810002281CD17868C00319D596FA51
:10133000A6F0B0FA80F040F02000400901D03868F3
:1013400000E0786A96FAA6F1B1FA81F101F01F0186
:1013500005FA01F1084272D0606878BB0120BDE84F
:10136000F88F6068B0F5803F11D0A8B1B0F5A02F1C
:101370001BD0386820F480303860386820F4802032
:1013800038606068C8B3FFF7A1FD80461FE0386889
:1013900040F480303860F4E7386820F480303860FA
:1013A000386820F480203860EBE7386840F480200B
:1013B0003860386840F480303860E2E73FE0FFF79B
:1013C00085FDA0EB0800642801D90320C7E796FA41
:1013D000A6F0B0FA80F040F02000400901D0386853
:1013E00000E0786A96FAA6F1B1FA81F101F01F01E6
:1013F00005FA01F10842E2D021E0FFE7FFF766FDC0
:10140000804607E0FFF762FDA0EB0800642801D9E1
:101410000320A4E796FAA6F0B0FA80F040F020008E
:10142000400901D0386800E0786A96FAA6F1B1FA6E
:1014300081F101F01F0105FA01F10842E2D12078A3
:10144000DFF8A88280074FF0000A4FF0020632D57D
:1014500078684FF0F80B10F00C0F07D07868C0F3E5
:101460008100022828D17868C00325D496FAA6F016
:10147000B0FA80F040F02000400901D0386800E068
:10148000786A96FAA6F1B1FA81F101F01F0105FA26
:1014900001F1084204D02069012801D001205EE753
:1014A00038689BFAABF220F0F8016069B2FA82F278
:1014B0009040014339605CE0206990B395FAA5F053
:1014C000B0FA80F048F82050FFF700FD814607E0B1
:1014D000FFF7FCFCA0EB0900022801D903203EE73E
:1014E00096FAA6F0B0FA80F040F02000400901D052
:1014F000386800E0786A96FAA6F1B1FA81F101F055
:101500001F0105FA01F10842E2D038689BFAABF2FC
:1015100020F0F8016069B2FA82F29040014339602C
:1015200027E0FFE795FAA5F0B0FA80F048F820A090
:10153000FFF7CCFC814607E0FFF7C8FCA0EB0900F1
:10154000022801D903200AE796FAA6F0B0FA80F043
:1015500040F02000400901D0386800E0786A96FA2F
:10156000A6F1B1FA81F101F01F0105FA01F108427B
:10157000E2D12078000770D5A069C0B395FAA5F034
:10158000B0FA80F008EB8000C0F88054FFF79EFCB2
:10159000814607E0FFF79AFCA0EB0900022801D979
:1015A0000320DCE696FAA6F0B0FA80F040F0600086
:1015B000B5EB501F01D138680BE096FAA6F0B0FAEF
:1015C00080F040F06000B6EB501F01D1386A00E0B7
:1015D000786A96FAA6F1B1FA81F101F01F0205FAD4
:1015E00002F10842D6D00120FFF761FB35E0FFE7AA
:1015F00095FAA5F0B0FA80F008EB8000C0F880A45E
:10160000FFF764FC814607E0FFF760FCA0EB0900F0
:10161000022801D90320A2E696FAA6F0B0FA80F0DB
:1016200040F06000B5EB501F01D138680BE096FA2E
:10163000A6F0B0FA80F040F06000B6EB501F01D188
:10164000386A00E0786A96FAA6F1B1FA81F101F001
:101650001F0205FA02F10842D6D12078400771D561
:10166000F86940F08050F861F86900F0805000900F
:10167000DFF87CB0DBF8000040F48070CBF80000AD
:10168000FFF724FC814607E0FFF720FCA0EB0900F0
:10169000642801D9032062E6DBF80000C005F3D519
:1016A000E068012812D0B0B1052823D0386A20F0B4
:1016B00001003862386A20F004003862E06841F2C4
:1016C000883B98B3FFF702FC814624E0386A40F07B
:1016D00001003862F2E7386A20F001003862386AA7
:1016E00020F004003862E9E70010024000004242A6
:1016F00000700040386A40F004003862386A40F0F8
:1017000001003862DAE7FFF7E1FBA0EB090058457A
:1017100001D9032023E696FAA6F0B0FA80F040F053
:101720004000B5EB501F02D138680DE017E096FA83
:10173000A6F0B0FA80F040F04000B6EB501F02D1A6
:10174000386A01E038E0786A96FAA6F1B1FA81F1D8
:1017500001F01F0205FA02F10842D4D02CE0FFF795
:10176000B5FB814607E0FFF7B1FBA0EB0900584548
:1017700001D90320F3E596FAA6F0B0FA80F040F024
:101780004000B5EB501F01D138680BE096FAA6F087
:10179000B0FA80F040F04000B6EB501F01D1386A3B
:1017A00000E0786A96FAA6F1B1FA81F101F01F0221
:1017B00005FA02F10842D6D1E06980B37968C1F335
:1017C0008101022970D04FF080794FF00076022815
:1017D00009D099FAA9F0B0FA80F048F820A0FFF7F4
:1017E00075FB044668E099FAA9F0B0FA80F048F871
:1017F00020A0FFF76BFB824607E0FFF767FBA0EB3B
:101800000A00022801D90320A9E596FAA6F0B0FA49
:1018100080F040F02000400902D0386801E060E02C
:10182000786A96FAA6F1B1FA81F101F01F0105FA82
:1018300001F10842E1D1206AB0F5803F05D1786816
:10184000A16820F4003008437860D4E90801084317
:10185000796821F474110843786099FAA9F0B0FA14
:1018600080F048F82050FFF731FB044606E0FFF710
:101870002DFB001B022801D9032070E596FAA6F083
:10188000B0FA80F040F02000400901D0396800E053
:10189000796A96FAA6F0B0FA80F000F01F0005FA17
:1018A00000F00142E3D01CE01DE0FFF70FFB001B3E
:1018B000022801D9032052E596FAA6F0B0FA80F08A
:1018C00040F02000400901D0396800E0796A96FABA
:1018D000A6F0B0FA80F000F01F0005FA00F0014217
:1018E000E3D100203BE5012039E54FF0E021042859
:1018F00004D0086920F0040008617047086940F0CE
:1019000004000861704710B5401EB0F1807F01D31C
:10191000012010BD4FF0E02460610F21601700F03E
:10192000F1FD0020A06107202061002010BD10B54E
:101930000446002C03D094F8390010B107E00120D0
:1019400010BD002084F83800204600F00DF8022079
:1019500084F83900211D206800F02AFE012084F857
:101960003900002010BD000008B50548C16941F0EC
:101970000201C161C06900F00200009008BD0000D2
:1019800000100240022180F8391001680A6842F014
:1019900001020A60012180F8391000207047000020
:1019A00000B585B000680F49884219D10E48816999
:1019B00041F008018161806900F0080000900B4847
:1019C000416821F4406141F40061416030200190A0
:1019D000022002900320049001A90548FFF772F944
:1019E00005B000BD000400400010024000000140AE
:1019F000000C014070B504460D4694F838000128EB
:101A00000DD0012684F83860022084F8390042B1F4
:101A1000042A1AD0082A2DD00C2A53D13EE00220E5
:101A200070BD2946206800F001FE2068816941F000
:101A3000080181612068816921F0040181612068C9
:101A400081692A69114381613CE02946206800F0E0
:101A50001DFE2068816941F400618161206881690F
:101A600021F480618161206881692A6941EA02214B
:101A7000816127E02946206800F03AFE2068C169AC
:101A800041F00801C1612068C16921F00401C16110
:101A90002068C1692A691143C16113E029462068A1
:101AA00000F056FE2068C16941F40061C161206800
:101AB000C16921F48061C1612068C1692A6941EA74
:101AC0000221C161383466700020207070BD10B5ED
:101AD0000446002C03D094F8390010B107E001202F
:101AE00010BD002084F83800204600F00CF80220D9
:101AF00084F83900211D206800F05AFD012084F887
:101B00003900002010BD704710B50446012220683E
:101B100000F080FD07492068884203D1416C41F400
:101B2000004141642068016841F00101016000202A
:101B300010BD0000002C014070B50446002C17D0E9
:101B4000022084F839002068C16821F40051C16086
:101B500020680025C5602068056120684561204631
:101B600000F038F83834656065702570002070BD6D
:101B7000012070BD70B50446002C04D094F83900E3
:101B8000002510B106E0012070BD84F838502046D1
:101B900000F022F8022084F839002068C16821F49E
:101BA0000051C160204600F0F7FD2068016921F472
:101BB000904101612068416921F02A01416120685A
:101BC000C16841F40051C160E563012084F8390027
:101BD000002070BD70470000F0B585B0374F026837
:101BE00000253749022001230326364CBA4231D161
:101BF0008A6942F480428A618A6902F480420092D2
:101C00008A6942F004028A618A6902F00402009241
:101C10008A6942F004028A61896901F00401009135
:101C20000102019102900393049601A92046FFF757
:101C300049F821150191029501A92046FFF742F8C4
:101C4000002206212520FFF7BFF92520FFF7B0F974
:101C500005B0F0BD1C4FBA42FAD1CA6942F4003255
:101C6000CA61CA6902F4003200928A6942F0040231
:101C70008A618A6902F0040200928A6942F00402D1
:101C80008A61896901F004010091042101910290A7
:101C90000393049601A92046FFF714F80821019147
:101CA000029501A92046FFF70DF800220221262007
:101CB000FFF78AF92620FFF77BF9C9E700380140D2
:101CC0000010024000080140004400402DE9F041AE
:101CD00004460D46984694F83900012804D012288D
:101CE00002D00220BDE8F0819DB192B194F8380095
:101CF000012810D0012684F838600027E76394F8A3
:101D00003900122809D0222084F83900A285E28502
:101D100036E00120E6E70220E4E7322084F83900CB
:101D2000F4E7401EE085A068B0F5805F08D0434628
:101D300000222021204600F0FDFDC8B10320D1E79C
:101D4000434600222021204600F0F4FD08B1032084
:101D5000C8E7206928B120684068C1B229806D1C9D
:101D60000EE020684068C0F308012980AD1C07E040
:101D7000206990B12068406800F07F0005F8010BF1
:101D8000E08D0028CDD194F8390032280AD084F8AB
:101D9000396084F838700020A4E72068406805F8AE
:101DA000010BEDE7122084F83900F2E72DE9F0414C
:101DB00004460D46984694F83900012804D022289C
:101DC00002D00220BDE8F0819DB192B194F83800B4
:101DD000012810D0012684F838600027E76394F8C2
:101DE0003900222809D0122084F83900A284E28424
:101DF0002EE00120E6E70220E4E7322084F83900F3
:101E0000F4E7401EE084A068B0F5805F08D0434648
:101E100000228021204600F08DFDA8B10320D1E7EB
:101E2000434600228021204600F084FD08B10320B3
:101E3000C8E728882168C0F308004860206908B115
:101E40006D1C05E0AD1C03E0216815F8010B48602E
:101E5000E08C0028D5D1434600224021204600F0E6
:101E600069FD08B10320ADE794F83900322805D0A8
:101E700084F8396084F838700020A3E7222084F8C1
:101E80003900F7E7FEE7FEB505460E46144600208A
:101E90000290019301A804F0E3FA8DF80800029B78
:101EA000C3F3C0003070C3F3031028706946019873
:101EB00000F0F6F8019901440191009A8B18591A23
:101EC000022904DB01A804F0D1FA20800120FEBD24
:101ED0007FB505460E460020039002920024009034
:101EE00002A804F0BDFA8DF80C000398C0F30310AB
:101EF00002281AD101A9029800F0D2F802990446EA
:101F00004218029201981044801A02280DDB02A8A0
:101F100004F0A6FA8DF80000009800F00100287087
:101F200002A804F09DFA3070012404B0204670BD70
:101F30002DE9FE4F0D46DDE90CB9DDE90EA106469F
:101F4000174698460020029001910024009001A8B5
:101F500004F086FA8DF808000298C0F303110329F3
:101F60002BD1C0F3C0013170C0F34101296000F0F2
:101F7000010038706946019800F092F80199044612
:101F80000844019000994618324601A9584604F0C9
:101F900076FA90B10198301A0FD42868002804DD31
:101FA00001A804F063FAA8F800000198301ACAF8F2
:101FB00000000198C9F8000001242046BDE8FE8F0A
:101FC0002DE9FE4F82460C980E4614461F464FF0F0
:101FD0000009CDF808900190C84601A804F040FA25
:101FE0008DF808000298C0F30310092827D169462C
:101FF000019800F055F80199804608440190009935
:102000004518281A02281ADB01A804F02FFAAAF8AA
:102010000000C4F800900DE02068B04202DD4FF0EF
:10202000FF380CE001A804F01BFA2268511C216063
:1020300047F822000198A842EED34FF0010840462D
:10204000BDE8FE8F3EB500240294019400920B4639
:10205000024601A902A8FFF716FF9DF808100B29F8
:1020600000D101203EBDF8B507460E4601240025EB
:10207000002030606D1C042D0FDC01216846B8473C
:1020800001280AD19DF80020306802F07F0101FB91
:1020900004003060E4011006ECD42846F8BD0000CE
:1020A000024A10600248FFF7DEBF000088000020EF
:1020B000153B000810B504460020CA1701EB526317
:1020C00023F07F02891ACAB2D911002901DD42F03A
:1020D0008002034600F10100E254EEDC10BD70B551
:1020E00002460E461068002804D00546FEF7EAF8BE
:1020F000044601E0956854683046FEF7E3F88442F0
:1021000005D1224631462846FEF7E3F808B1002003
:1021100070BD012070BD0000401C802801DA401C09
:102120007047B0F5804F01DA801C70470349884240
:1021300001DAC01C7047001D70470000FFFF1F0040
:102140007CB50546069E002401940095042901DA19
:10215000A01E7CBD62F3071463F3C3040194062A36
:1021600015D024F0060201929DF80410684606F08E
:1021700009F802210098FFF79DFF0099084400909C
:102180003146684606F004F80098401B7CBD24F0F8
:102190000602921CE7E700002DE9FE4305460F46C4
:1021A00014460295002601960096204600F092F80B
:1021B0008046FFF7B1FFB84202DDB01EBDE8FE83E6
:1021C0008DF80460019820F0F000103001909DF827
:1021D000041002A805F0D6FF41460298FFF76AFFF7
:1021E000029908440290207A042813D035A102A84D
:1021F00005F0B4FF032102A805F0C4FF8DF80060CC
:10220000A17E009861F341000090E17E59B140F059
:1022100004000AE02DA102A805F0A0FF042102A8F5
:1022200005F0B0FFEAE720F004000090410708D570
:1022300094F83D1061F3C40094F83C1061F345102C
:102240000090206C08B9A06C18B1009840F0800094
:102250000090E06C08B9606D18B1009840F0400043
:1022600000909DF8001002A805F08CFF218B02A8B9
:1022700005F08EFFD4E9042302A8E16805F097FF7A
:10228000E07E58B1D4E90A2302A8616A05F08FFF05
:10229000D4E90D2302A8216B05F089FF009E3006CA
:1022A00005D5D4E9112302A8216C05F080FF700642
:1022B00004D54C3402A80ECC05F079FF0298401BDF
:1022C0007CE700004D514973647000004D51545437
:1022D0000000000070B504460025207A032802D0D3
:1022E000042802D002E00C2500E00A25D4E90412FB
:1022F000E06800F0FAF80544AD1CE07E68B1D4E96E
:102300000A12606A00F0F1F8D4E90D120646206B5B
:1023100000F0EBF8304405442D1D206C08B9A16C89
:1023200029B1D4E9111200F0E0F80544AD1CE06CCD
:1023300008B9616D29B1D4E9141200F0D6F805444A
:10234000AD1C284670BD0C2200F0B2B82DE9FE4F3E
:102350000546DDE90C9A129E0F4690461C460295F2
:10236000002001900EA900960EC9204600F032F818
:102370008346FFF7D1FEB84203DD6FF00100BDE8F0
:10238000FE8F302068F3C30064F3420069F300005D
:1023900001909DF8041002A805F0F4FE5946029839
:1023A000FFF788FE0299084402900EA902A80EC900
:1023B00005F0FDFE002C03DD514602A805F0E8FE05
:1023C000324611990298FDF747FF02983044029077
:1023D000401BD4E77FB50546089C01A807C800F05C
:1023E00084F82044801C002D00DD801C04B070BDEA
:1023F0002DE9FF4F83B00646DDE91189109F8A461B
:10240000934602960025019500244146384600F087
:1024100039F80090FFF780FE504503DDA01E07B09D
:10242000BDE8F08F8DF80450019820F0F000803066
:102430006BF3C30020F00600801C01909DF804108F
:1024400002A805F09FFE00990298FFF733FE02995B
:102450000844029002A8069905F09AFE0DE004EBEC
:10246000440008EB800502A80ECD05F0A0FE19F887
:10247000241002A805F086FE641CBC42EFDB029823
:10248000801BCCE72DE9F04106460F4602250024CB
:1024900009E004EB440007EB800307CB00F025F8CC
:1024A0000544ED1C641CB442F3DB2846BDE8F08112
:1024B0001CB50446002001900094022901DA801E18
:1024C0001CBD8DF80400019862F3071001909DF87F
:1024D0000410684605F056FE00210098FFF7EAFD5B
:1024E000009901440091081B1CBD17B400980028F6
:1024F00003D000981EBCFDF7E5BE01981EBC7047D6
:10250000FEE770470907090E002806DA00F00F0001
:1025100000F1E02080F8141D704700F1E02080F801
:10252000001470470907090E002806DA00F00F00B2
:1025300000F1E02080F8141D704700F1E02080F8E1
:1025400000147047704710B5FEF7C6FC05F020F880
:10255000002807D004F0D2FF05F0CEFDBDE8104002
:1025600004F0DABF10BD00000D48016841F0010120
:10257000016041680B4A1140416001680A4A1140FC
:102580000160016821F480210160416821F4FE01AD
:1025900041604FF41F0181600449C0030860704727
:1025A000001002400000FFF8FFFFF6FE08ED00E01B
:1025B000F0B50268144C154E154D4FF08047A042FF
:1025C00005D0B84203D0B04201D0A84203D122F0D6
:1025D00070034A681A43A04205D0B84203D0B04203
:1025E00001D0A84203D122F44073CA681A430260A2
:1025F0008A68C2620A688262A04201D109690163E5
:1026000001214161F0BD0000002C014000040040A8
:102610000008004010B501238B40046A9C4304620B
:10262000036A8A401343036210BD000030B5026A9A
:1026300022F001020262036A4268846924F0700495
:1026400024F003050C682C4323F002058B682B4310
:102650000D4DA84206D123F00805CB6843EA0503D7
:1026600023F0040309D122F4807222F400724D6930
:1026700045EA02058A6942EA0502426084614968C6
:102680004163036230BD0000002C014030B5026A96
:1026900022F010020262036A4268846924F4E04472
:1026A00024F440740D6844EA052423F020038D6867
:1026B00043EA05130D4DA84206D123F08003CD68EF
:1026C00043EA051323F0400309D122F4806222F487
:1026D00000624D6942EA85028D6942EA85024260E4
:1026E000846149688163036230BD0000002C0140B1
:1026F00030B5026A22F480720262036A4268C469D9
:1027000024F0700424F003050C682C4323F40073B8
:102710008D6843EA05230D4DA84206D123F40063DA
:10272000CD6843EA052323F4806309D122F4805263
:1027300022F400524D6942EA05128D6942EA0512FF
:102740004260C4614968C163036230BD002C01402E
:1027500030B5026A22F480520262036A4268C46998
:1027600024F4E04424F440740D6844EA052423F47E
:1027700000538D6843EA0533064DA84204D122F484
:1027800080424D6942EA85124260C4614968016431
:10279000036230BD002C01402DE9F0410446206861
:1027A0000169E26821F4405111430161A168206987
:1027B0000143606901432068C26841F20C639A4397
:1027C0000A43C26020684169A26921F44071114343
:1027D00041615749206864253226884254D1FEF76A
:1027E00031FD00EBC00101EB001061688900B0FB16
:1027F000F1F7FEF727FD00EBC00101EB0010616867
:102800008900B0FBF1F0B0FBF5F06FF01801484320
:1028100007EB800006EB0010B0FBF5F000F0F007CE
:10282000FEF710FD00EBC00101EB001061688900AC
:10283000B0FBF1F0B0FBF5F007EB0017FEF702FD7F
:1028400000EBC00101EB001061688900B0FBF1F8FA
:10285000FEF7F8FC00EBC00101EB00106168890095
:10286000B0FBF1F0B0FBF5F06FF01801484308EB56
:10287000800006EB0010B0FBF5F0216800F00F00BF
:1028800038448860BDE8F081FEF7C6FC00EBC0016B
:1028900001EB001061688900B0FBF1F7FEF7BCFCAA
:1028A00000EBC00101EB001061688900B0FBF1F0A2
:1028B000B0FBF5F06FF01801484307EB800006EB22
:1028C0000010B0FBF5F000F0F007FEF7A5FC00EB00
:1028D000C00101EB001061688900B0FBF1F0B0FBB2
:1028E000F5F007EB0017FEF797FC00EBC00101EBDA
:1028F000001061688900B0FBF1F8FEF78DFC00EB79
:10290000C00101EB001061688900B0FBF1F0B0FB81
:10291000F5F06FF01801484308EB800006EB00105B
:10292000B0FBF5F0216800F00F0038448860A9E79B
:10293000003801402DE9F04704460F4692461D46F7
:10294000FEF7C4FA06464FF000084FF00109BAF14D
:10295000000F23D04AE0681C20D025B1FEF7B6FA5C
:10296000801BA8421AD92068C16821F08001C1608B
:102970002068C16821F02001C1602068C16821F48D
:102980008071C1602068416921F00101416184F8D2
:10299000399084F838800320BDE8F087206800680B
:1029A00037EA0000D7D126E0681C1FD025B1FEF71A
:1029B0008DFA801BA84219D92068C16821F08001D6
:1029C000C1602068C16821F02001C1602068C16831
:1029D00021F48071C1602068416921F001014161E9
:1029E00084F8399084F838800320D5E7206800689F
:1029F00037EA0000D8D00020CEE7000008B504F088
:102A00007DFD0A4800680068C04380060BD401239E
:102A10001A4669460548FFF759F901231A466946DF
:102A20000248FFF7C3F904F077FD08BDE405002074
:102A300008B504F063FD094800680068C0438006DB
:102A400009D401231A4669460448FFF73FF99DF867
:102A5000000004F019FC04F05FFD08BD240600200E
:102A6000FEE700000FB4054B10B503A9044A029815
:102A700000F01CF910BC5DF814FB000015470008BD
:102A8000940000200FB4084B10B504A902AA0398C3
:102A900000F00CF9044602A9002000F0A9FC204631
:102AA00010BC5DF814FB0000F13300087CB504464F
:102AB00000201D46164600290BD0491ECDE90041D5
:102AC000044B6A462946304600F0F0F8009A00218F
:102AD00011707CBDDB33000810B5C143491C0840B0
:102AE00001F024FE401E10BD10B501F01FFE401E77
:102AF00010BD02E008C8121F08C1002AFAD17047B1
:102B00007047002001E001C1121F002AFBD170476D
:102B10002DE9FF5F82B00021DDE90430020DDDF810
:102B200040B0034318D044F61050A2F2FF324243A3
:102B30001514119801281FD0A5EB0B00401C5FEA6B
:102B4000000A4FF000064E4FDFF83891B04650466D
:102B500015D5CAF1000413E0119801244AA30128F5
:102B600001D16FEA0B010298119AC0E90031C0E966
:102B7000024206B0BDE8F09FCBF10000DFE704465B
:102B80000021404A491842EB0450CDE9001012E000
:102B9000E00707D032463B4640464946FDF70EFE69
:102BA0008046894632463B4610461946FDF706FEEA
:102BB00006460F466410002CEAD1DDE90401DDE988
:102BC0000023BAF1000F06DAFDF7F8FD42464B4646
:102BD000FDF7F4FD05E0FDF717FC42464B46FDF717
:102BE00013FC04460E460022284BFDF771FE03D865
:102BF0004FF0FF30014607E00022254B20463146CA
:102C0000FDF735FDFDF74CFE102409E0002C0ADB32
:102C10000A220023FDF7CCFA039B30321A55641EBA
:102C200050EA0102F2D1641C039AC4F11103144466
:102C3000119A012A03D0012208430DD10AE008436A
:102C400004D000204FF0110B119072E7A3EB0B059D
:102C50006D1E0DE05B4504DD4FF0000205F101053E
:102C600004E003DA4FF00002A5F10105002AECD0E0
:102C700002981199C0E90231C0E9004579E70000E6
:102C8000000014400000F03F300000000000F0435E
:102C90000000E03F5060026041600860704748609B
:102CA00001607047D0E90010FFF7F9BF2DE9FF4F31
:102CB00095B09B468946064600250FE2252877D128
:102CC00000242746F84A0121059400E0044316F841
:102CD000013F203B01FA03F01042F7D130782A2857
:102CE00011D06FF02F033078A0F13002092A16D8E6
:102CF000059A44F0020402EB820203EB4202104404
:102D0000761C0590EFE759F8042B0592002A03DAA8
:102D1000504244F40054059044F00204761C30788C
:102D20002E2816D116F8010F44F004042A280DD0DD
:102D30006FF02F023078A0F13003092B09D807EB90
:102D4000870302EB4303C718761CF3E759F8047BAB
:102D5000761C30786C280FD006DC4C2817D06828F9
:102D60000DD06A2814D104E0742810D07A280FD12D
:102D70000DE044F400140AE044F4801401E044F44B
:102D800040147278824202D104F58014761C761CBD
:102D9000307866280BD013DC582877D009DC00285F
:102DA00075D04528F6D04628F4D047281AD19DE1A1
:102DB00018E0632835D0642879D0652812D195E1D0
:102DC000702873D008DC6728F1D069286FD06E288E
:102DD0000DD06F2806D1B5E073282CD0752875D09A
:102DE000782874D05A46179990476D1C75E1C4F342
:102DF0000250022809D003280DD0D9F80010042869
:102E00000DD00D6009F1040967E1D9F80010EA1747
:102E1000C1E90052F6E7D9F800100D80F2E70D7015
:102E2000F0E719F8041B8DF8001000208DF8010060
:102E3000EA46012003E059F804AB4FF0FF30610788
:102E40004FF0000102D40DE008F101018846B942BB
:102E50000FDA8045F8DB1AF808100029F4D108E0F1
:102E600008F1010188468142FADB1AF808100029AE
:102E7000F6D105985B46A0EB080721463846179A1D
:102E800000F094FA284400EB080507E04DE029E142
:102E90000DE01AF8010B5A4617999047B8F101084E
:102EA000F7D25B4621463846179A13E142E00A22E0
:102EB0000092C4F302524FF0000A022A08D059F8D7
:102EC00004CB032A4FEAEC710AD00DE029E02AE096
:102ED00009F1070121F00702F2E802C1914609E079
:102EE0000FFA8CFC4FEAEC71042A03D14FFA8CFCE8
:102EF0004FEAEC71002907DA0A460021DCF1000CE8
:102F000061EB02012D2202E0220504D52B228DF86F
:102F10000420012203E0E20701D02022F7E79046D7
:102F200059E00A2102E010220DE010214FF0000AC2
:102F300000910BE010224FF0000A44F0040408272F
:102F4000009203E008224FF0000A0092C4F30252FC
:102F5000022A05D059F804CB0021032A08D009E041
:102F600009F1070121F00702F2E802C1914605E0EC
:102F70001FFA8CFC042A01D10CF0FF0C4FF0000862
:102F8000220728D5702806D0009B83F0100353EA4F
:102F90000A0305D00EE040228DF80420012208E04B
:102FA0005CEA010206D030228DF804208DF805007D
:102FB00002229046009B83F0080353EA0A030AD1D9
:102FC0005CEA010201D1620705D530228DF80420A8
:102FD0004FF001087F1E582804D034A003900EA89B
:102FE00002900DE036A0F9E753466046009AFDF7DF
:102FF000DFF884460398825C0298401E02900270BB
:103000005CEA0100F0D1029806A9081A00F1200A32
:10301000600702D524F4803400E00127574502DD23
:10302000A7EB0A0000E0002000EB0A0100900598E1
:103030004144401A0590E00306D45B462146179AA6
:10304000059800F0B3F90544002706E001A85A46A8
:10305000C05D179990476D1C7F1C4745F6DBE00368
:103060000CD55B462146179A059800F09FF9054458
:1030700004E030205A46179990476D1C0099481E6D
:1030800000900029F5DC08E0029802995A46007881
:10309000491C0291179990476D1CBAF10001AAF1E1
:1030A000010AF1DC65E1000009280100303132330A
:1030B0003435363738396162636465660000000074
:1030C000303132333435363738394142434445465E
:1030D0000000000000F058F90544761C3078002804
:1030E0007FF4ECAD19B02846BDE8F08F620700D43C
:1030F000062709F1070222F0070CFCE80223E1464B
:1031000003F000485FEA080C02D00FF2702C0DE0CB
:103110005FEA045C02D50FF2682C07E05FEAC47C2A
:1031200002D00FF2602C01E0AFF2700C4FF0FF38CC
:1031300023F00043CDF850C065280CD006DC4528AC
:1031400009D046281DD047283DD13DE0662818D03B
:1031500067287ED138E00021112F01DB112000E02B
:10316000781CCDE9000106A90EA8FFF7D1FCDDE926
:103170000F010E9A03910021009207F1010A0491B8
:103180004DE04FF000400097CDE9011006A90EA8D0
:10319000FFF7BEFCDDE90F0203920E9B119900229E
:1031A000DDF80CA00093049211B9791C00EB010A20
:1031B000B7EB0A0004D4C0F1FF3007F1010A049014
:1031C000AAEB0700019044E0012F00DA012700215B
:1031D000112F01DD112000E03846CDE9000106A9DC
:1031E0000EA8FFF795FCDDE90F010E9A039100216F
:1031F00004910092BA4621070CD40399514500DA94
:103200008A46BAF1010F05DD009AAAF10101515C6D
:10321000302908D0B84202DA10F1040F06DA012191
:10322000CDE9011015E0AAF10101E9E7002805DC6C
:10323000049901440491AAEB000102E0411C5145AC
:1032400000DD8A460499401A401C01904FF000406E
:103250000290200704D40198504501DBCDF804808A
:1032600000208DF84F0002980DF14F07B0F1004F8C
:1032700025D02B200E9002984FF0020800280CDA7F
:10328000404202902D200E9007E00A210298FDF79F
:1032900037F93031029007F8011DB8F10001A8F1AB
:1032A0000108F2DC02980028EFD1791E0E98087010
:1032B000307800F0200040F0450007F8020D12A819
:1032C000C01B00F107081498007800B1012000EB42
:1032D0000A01019801EBE07105984144401A401E33
:1032E0000590E00306D45B462146179A059800F046
:1032F0005DF805441498007818B15A46179990471C
:103300006D1CE00324D55B462146179A059800F012
:103310004DF805441CE00498002807DBDDE90301B3
:10332000884203DD0098405C179901E0179930202E
:103330005A469047049805F10105401C04900198F5
:10334000401E019004D12E205A46179990476D1CBB
:10335000BAF10001AAF1010ADDDC05E017F8010B62
:103360005A46179990476D1CB8F10001A8F1010861
:10337000F4DC5B462146179A0598ABE62D00000069
:103380002B000000200000002DE9F041044600253C
:103390001E461746880404D405E039462020B0476D
:1033A0006D1C641EF9D52846BDE8F0812DE9F04179
:1033B000044600251E469046C80301D5302700E08C
:1033C0002027880404D505E041463846B0476D1CE7
:1033D000641EF9D52846BDE8F0814A68002A06D067
:1033E0000A68531C0B6010704868401E48607047A4
:1033F0000A68531C0B6010707047002808D00844FE
:10340000401E491E8843B0F1804F03D90020704709
:10341000002070470C28FCD80C2070472DE9F0479D
:1034200004460E4617464FF48068404604F03BF9C8
:1034300005464FF0FF3955B104F1240004F0A2F91C
:1034400038B1284604F03FF94846BDE8F0874846C1
:10345000FBE7256242462946201D03F025FFA664AE
:10346000E76400202070022084F844000020ECE78C
:10347000002801D00020704705480246127809B1A3
:10348000002AF8D109B9002AF5D0002070470000C1
:10349000A00600202DE9F0410024094E012704EB8D
:1034A000840006EB001550212846FCF7EEFE2F7035
:1034B00085F84470641C012CF1DBBDE8F08100004C
:1034C000A006002073B506461048054604F0A8F98A
:1034D00010B14FF0FF307CBD0C4C3246241F4FF42E
:1034E00000712068019BFFF7E1FA064608A02168F9
:1034F000FFF7B8FA4FF6FF723146206800F0BEF9C8
:10350000284604F005FA00207CBD0000B407002026
:10351000415420434D443A0A25730A002DE9F041F5
:1035200006460F4604F020FC04460D4604F01CFC41
:10353000001B61EB0501801BB941F7D3BDE8F081A9
:103540000021C16001744161014988657047000034
:10355000A006002070B50C46016886686268606944
:10356000151A002D0DD0B54200D3354622681044FF
:103570002A46FCF771FE606928446061E068401CDF
:10358000E06070BD70B504460D48D0F8D8500DA16C
:103590002846FCF785FE10B10120207470BD0AA1F9
:1035A0002846FCF77DFE10B10320207470BD08A1F1
:1035B0002846FCF775FE0028F8D00220207470BD64
:1035C000A00600204F4B00004552524F5200000011
:1035D0004641494C000000002DE9F04781468846ED
:1035E00000240C48066D476D0DE006EBC405286805
:1035F000FCF768FE0246904504D349462868FCF76C
:1036000068FE28B1641CBC42EFD30020BDE8F087FF
:103610002846FBE7A0060020014A10655165704767
:10362000A0060020024908688968FFF7D5BF00009E
:103630007807002070B50E48806D00280DD0846892
:103640005CB10B48D830066885682046FCF73AFE26
:103650000246954203D2002070BD002070BD314665
:103660002046FCF736FE08B1002070BD012070BD79
:10367000A0060020174D00F0B7F80428FBD0022860
:1036800009D01449D8398C6D002CF4D003280BD004
:10369000012812D016E0FFF7C5FF0028EBD04068E4
:1036A0000028E8D08047E6E704202074A06948B1EC
:1036B00004F11C0004F054FB04E0207C10B9204607
:1036C000FFF760FF20680028D5D021462846FFF785
:1036D00041FFD0E77807002010B5064CD4F8D80099
:1036E000002801D003F0EFFF002044F8D80F6060FD
:1036F000A06010BDA006002010B54FF480642046E5
:1037000003F0D1FF0649002228B141F8D80F4C60E0
:103710008A60002010BDC1F8D8204FF0FF3010BDE6
:10372000A006002070B5064614461D46002E04D0A3
:1037300004F01AFB0019694103C670BD002802D0CD
:10374000002202604260704710B50446002C07D08A
:1037500004F00AFB0CCC801A994104D3012010BD5F
:103760004FF0FF3010BD002010BD70B5064604F0CC
:10377000FBFA04460D463046FFF7E6FF10B1002085
:10378000014670BD03CE001B61EB050170BD00005A
:103790002DE9F041064614461D4601200021FFF7A1
:1037A000BDFE22462B460F4804F08AFA4FF0FF3543
:1037B00010B12846BDE8F0810A482038074604F0D9
:1037C0002FF808B12846F5E706483146103003F0D7
:1037D000A5FD0446384604F09BF80CB12846E9E7FD
:1037E0000020E7E71C0800202DE9F843002500260B
:1037F000214C0027A760D4E90001FCF746FD4FF0FB
:10380000FF38424613466846FFF7C2FF0028F8D14A
:103810009DF800000028F4D06168A9420AD9226806
:1038200029466D1C5054A560FFF7FCFE40B10220F4
:10383000BDE8F88303CC084400F8017C0420F7E7D6
:10384000FFF7F8FE08B10320F2E79DF800000A2810
:1038500001D10D2E01D00646D3E76D1E0A21226844
:10386000681E1154A560012D01D00120E0E700265B
:103870000025A760C5E70000780700202DE9F0418A
:1038800006460F4614460948054603F0C9FF074897
:1038900023463A463146083803F004FE04462846DB
:1038A00004F036F82046BDE8F0810000DC07002077
:1038B00010B50446486820F003006168001D084404
:1038C0006060204600F01BF8204610BD406820F0E4
:1038D00003001031884201D3012070470020704757
:1038E0001CB50446606820F003006A4601A901F097
:1038F0004DF8DDE90021204600F01EFF1CBD10B58B
:103900000446204600F05FF8046010BD1CB500219D
:10391000019100910024002813D06A4601A901F00A
:103920004CF80198182804DA694601A800F072F8EA
:10393000044624B1DDE90021204602F099FE20462C
:103940001CBD00201CBD10B504462046FFF7D7FF64
:10395000416841F002014160606840F00100606030
:1039600010BD10B50446204600F02DF800F07EF89A
:10397000606820F00100606010BD70B50546284603
:1039800000F021F80446207900F0010038B120460B
:1039900000F030F821462846FFF78AFF0546284602
:1039A00070BD70B50446207900F00200002808D0F0
:1039B0002568284600F01EF821462846FFF778FFC4
:1039C0000446204670BD00F10801406820F0030263
:1039D000121F8818704710B50446002C08D02046E6
:1039E00000F062F82046FFF7BCFF2046083010BD0B
:1039F000002010BD1CB50446606820F003006A4634
:103A000001A900F0C3FFDDE90021204602F030FEED
:103A10001CBD00002DE9F04107460E463C68317898
:103A2000114D4FF0FF3205EB840002FA01F1406ABC
:103A3000084000280BD1641C286AA240104088B1BD
:103A4000FFF74AF804463C6005EB8400406AFFF744
:103A500043F8306005EBC41101EB8000D0F884001E
:103A6000BDE8F0810020FBE770370020416821F0BD
:103A700002014160704710B500F108020B1FD41815
:103A8000426822F00302521A121F237903F0030343
:103A900013436360027902F003020A434260204646
:103AA000FFF751FF204610BD70B505460C46214674
:103AB0002846FFF70BFF002810D021462846FFF7C5
:103AC000DAFF04462846FFF71AFF606840F002005C
:103AD00060602046BDE87040FFF702BF70BD000087
:103AE00010B5FDF701FA02F0CBFE00F001FA00F08C
:103AF000ADF802F0E3FD00F0C7FFBDE8104001A003
:103B0000FEF7B0BF62737020696E6974206F6B211D
:103B10000A00000070B5054608460022054C05E085
:103B2000236813F8016B2E702360521C8242F7DB6E
:103B300070BD00008800002070B50A4D4FF48074FD
:103B4000002221462846FDF7BAF9322000F0B5F9E7
:103B5000012221462846FDF7B2F9BDE87040322027
:103B600000F0ABB9000C0140FCF7F7BA10B50648FD
:103B700000210CC805480068FCF71AFB04490860DE
:103B8000BDE8104000F00AB85800002004000020F2
:103B900060000020FCF7E6BAFCF7D2FA10B5044644
:103BA000002002F0DFFB2046BDE8104002F0C9BB58
:103BB00010B5029C234423F007034FF0807443F8B0
:103BC000044C43F8080C0C3B1A60A3F130004FF092
:103BD0001232C2624FF0033282624FF0023242620E
:103BE00052100262C1614FF01131816111014161D6
:103BF0004FF009310161D100C1604FF007318160A0
:103C00004FF0063141604FF0053140F80419910042
:103C1000016010BD10B504464FF04043104602F05D
:103C200062FE43EA0073084602F05DFE43EA8063E9
:103C3000204602F058FE43EA006040EA024040EAB3
:103C400001202043BDE8104002F0FABD10B50C4C35
:103C50000A4820604FF4E13060600020A060E0601E
:103C60002061A0610C2060612046FDF783FF206881
:103C7000C16841F02001C16010BD00000038014062
:103C8000E40500200EB5086C074BC2680078CDE94A
:103C9000010200910F2205A10EA0FEF7E3FEBDE890
:103CA0000E4018A0FEF7DEBE148200082E2E5C6DBA
:103CB000717474636C69656E745C6D717474636C3B
:103CC00069656E745C6D717474636C69656E742E75
:103CD0006300000025733A256420257328292E2EC1
:103CE0002E0A746F7069633A2025732C20716F73EC
:103CF0003A2025642C200A6D6573736167653A2547
:103D0000730000000A0000002DE9F047044600257A
:103D1000012000F0B3F83F4E002208213046FDF7A5
:103D2000CEF844F2506000F0C8F801220821304675
:103D3000FDF7C5F8142000F0C0F8002000F09EF850
:103D400008213046FDF7B4F828B10020BDE8F0871F
:103D5000012000F0B2F808213046FDF7A9F820B99B
:103D600028466D1CEDB26428F2D3002502E0012044
:103D700000F0A3F808213046FDF79AF8012804D195
:103D800028466D1CEDB26428F1D300F047F820708E
:103D900000F044F8607000F041F8A07000F03EF8C8
:103DA000E07000F03BF82071012000F067F801227C
:103DB00008213046FDF783F8267894F801806420C6
:103DC000704308EB880100EB4100FCF78CFBDFF847
:103DD000489000224B46FCF717FBC4E90201A77884
:103DE000E5786420784305EB850100EB4100FCF7A2
:103DF0007AFB00224B46FCF707FBC4E9040106EB03
:103E00000800791908442179884201D101209DE7F1
:103E100000209BE7000C0140000059402DE9F041D3
:103E200000250024144F012608213846FDF740F8EC
:103E30000028F9D0282000F040F808213846FDF786
:103E400037F801280BD0C4F1070006FA00F08543CB
:103E5000641CE4B2082CE7D32846BDE8F0810821B1
:103E60003846FDF725F80128F9D0C4F1070006FA15
:103E700000F0C0B20543EBE7000C01401FB508217C
:103E800000910021029103220392002802D0012810
:103E900002D003E0019101E001200190694602484F
:103EA000FCF710FF1FBD0000000C014010B5FCF72F
:103EB000CBF9BDE81040FCF7BDB901B50021009871
:103EC00000EBC000C30000F025F8024600F022F825
:103ED0009042FBD003D9A0EB0202114403E06FEA49
:103EE00002020244114402469942EFD308BD000089
:103EF0000648016841F08071016005480021416079
:103F0000016841F00101016070470000FCED00E034
:103F1000001000E00148406870470000001000E019
:103F200010B50446234605A24FF47A71002003F031
:103F30002DF8204602F088FF002010BD41542B438D
:103F40004950434C4F53453D25640D0A0000000085
:103F50002DE9F0418EB006460D46174600F04CFAAA
:103F60002946304602F050FF0446601C4FF0FF38EF
:103F70001DD0002211A3114603A803F065F8012FFC
:103F800017D00FA2CDE90165009223460DA242F29F
:103F9000107103A803F018F89DF81C0004280AD03B
:103FA000204602F051FF40460EB0BDE8F081404689
:103FB000FAE70CA2E6E72046F6E700004F4B0000C8
:103FC0005443500041542B43495053544152543DA3
:103FD00025642C222573222C222573222C25730D77
:103FE0000A0000005544500000B58BB000231A466B
:103FF0001946684603F028F807A24FF47A7168461C
:1040000002F0C4FF9DF81000012803D04FF0FF30EC
:104010000BB000BD0020FBE7415445300D0A000005
:1040200038B5002500240121684603F017F901285E
:1040300029D19DF800102C290ED005EB850001EB4D
:104040004005303DEFE79DF800103A290BD004EB16
:10405000840001EB4004303C0121684603F0FEF887
:10406000012810D1EFE74FF40070844200D90446D4
:104070002146054803F0F2F8A04204D12246024945
:10408000284602F062FF38BD500C002010B51AA07F
:10409000FEF7E8FC00F0F0F94FF0FF3420B11BA070
:1040A000FEF7E0FC204610BDFFF79EFF20B11DA0EB
:1040B000FEF7D8FC204610BD002000F001F920B129
:1040C0001FA0FEF7CFFC204610BD002000F078FABC
:1040D00020B123A0FEF7C6FC204610BD002000F052
:1040E000B9F820B126A0FEF7BDFC204610BD2CA0DB
:1040F000FEF7B8FC002010BD496E6974204553508E
:1041000038323636202E2E2E0A00000065737038A5
:1041100032363620726573746F7265204641494CA1
:1041200045440A0065737038323636206563686F1F
:1041300020636C6F7365204641494C45440A00007A
:1041400065737038323636206E6574206D6F646525
:1041500020736574204641494C45440A0000000024
:10416000657370383236362073656E64206D6F6407
:104170006520736574204641494C45440A0000009F
:1041800065737038323636206D756C74696C696E83
:104190006B20736574204641494C45440A00000079
:1041A000496E6974204553503832363620446F6E5C
:1041B000650A000010B5044606A12046FCF770F819
:1041C00020B906A12046FCF76BF808B1012010BD0C
:1041D000002010BD434C4F53454400006C696E6B8A
:1041E000206973206E6F742076616C696400000032
:1041F000F0B58DB007460D46002400220EA31146EF
:1042000002A802F021FF43F698260AE03B460BA2E3
:10421000314602A8009502F0D7FE9DF81810042937
:1042200007D02146641C0A29F0DB4FF0FF300DB0A7
:10423000F0BD0020FBE700004F4B000041542B4332
:10424000574A41503D222573222C222573220D0A04
:104250000000000070B58CB005460024002210A3B9
:10426000114601A802F0F0FE4FF4FA760CE09DB181
:1042700000230FA2314601A802F088FE9DF8142009
:10428000012A0BD0042A09D02046641C0A28EEDB40
:104290004FF0FF300CB070BD0123EAE70020F9E7D2
:1042A0006C696E6B206973206275696C646564006B
:1042B00041542B4349504D55583D25640D0A00008B
:1042C000F0B58BB00024661E002806D0012806D069
:1042D000022806D030460BB0F0BD10A502E013A5B1
:1042E00000E016A5002219A31146684602F0ACFEB4
:1042F0004FF47A770AE02A463946684602F046FECD
:104300009DF81000012807D0042805D02046641C21
:104310000A28F0DB3046DEE70020DCE741542B437F
:10432000574D4F44453D310D0A00000041542B4389
:10433000574D4F44453D320D0A00000041542B4378
:10434000574D4F44453D330D0A0000006E6F20630A
:1043500068616E676500000070B59CB006460C464B
:10436000154600F049F80023402201A911A802F0E7
:104370006BFE334611A24FF4FA6111A802F006FE5B
:104380009DF854004FF0FF36012802D030461CB093
:1043900070BD0FA11198FBF783FF68B122460FA1F2
:1043A000FBF7A6FF0020611901F8010C21460FA0C0
:1043B000FEF758FB0020EAE73046E8E741542B437C
:1043C0004950444F4D41494E3D222573220D0A006C
:1043D0002B434950444F4D41494E3A002B434950DD
:1043E000444F4D41494E3A2573000000474F542039
:1043F00049503A2025730A0010B5FFF7F5FD4FF03C
:10440000FF3420B107A0FEF72DFB204610BD002091
:10441000FFF720FF20B10AA0FEF724FB204610BDC5
:10442000002010BD65737038323636206563686FC2
:1044300020636C6F7365204641494C45440A000077
:1044400065737038323636206D756C74696C696EC0
:104450006B20736574204641494C45440A000000B6
:104460004FF47A63AFF3008002F018BD4FF47A6323
:10447000AFF3008002F012BD30B58BB000240023F2
:104480001A461946684602F0DFFD40F6B83508E0E6
:1044900009A22946684602F079FD9DF8100001281E
:1044A00007D02046641C0A28F2DB4FF0FF300BB027
:1044B00030BD0020FBE7000041542B524553544FC0
:1044C00052450D0A0000000010B501220A4902F011
:1044D000EDFD4FF0FF3408B1204610BD064808300E
:1044E00003F096FB08B1204610BD03F075FB08B140
:1044F000204610BD002010BD0C000020F0B59DB07E
:1045000005460F461646284602F0BBFC4FF0FF3426
:1045100028B102F0B3FD20B120461DB0F0BD204609
:10452000FBE71FA3402202A912A802F08DFD2B4633
:104530001CA24FF47A7112A8009602F027FD9DF894
:10454000580001280CD004280AD01298FFF732FE38
:1045500010B1284602F0ECFC02F09CFD2046DCE79E
:1045600015A3402202A912A802F06EFD33463A4676
:1045700042F2107112A802F039FE9DF8580004288A
:104580000AD01298FFF716FE10B1284602F0D0FCB0
:1045900002F080FD2046C0E702F07CFD3046BCE71B
:1045A0003E00000041542B43495053454E443D25A5
:1045B000642C25640D0A000053454E44204F4B00E7
:1045C00070B58CB00546002400231A46194601A890
:1045D00002F03AFD4FF47A760CE00DB1012300E0D1
:1045E000002309A2314601A802F0D0FC9DF8140076
:1045F000012807D02246641C0A2AEEDB4FF0FF3068
:104600000CB070BD0020FBE741542B4349504D4F87
:1046100044453D25640D0A002DE9F0439FB08046D6
:10462000269C0D4616469946404602F02AFC4FF05D
:10463000FF3730B102F022FD28B138461FB0BDE887
:10464000F0833846FAE724A3402204A914A802F014
:10465000FBFC4FF47A7145B13EB18DE870004346E2
:104660001EA214A802F092FC05E0434622A214A860
:10467000009402F08BFC9DF8600001280CD0042807
:104680000AD01498FFF796FD10B1404602F050FC96
:1046900002F000FD3846D1E71CA3402204A914A86B
:1046A00002F0D2FC23464A4642F2107114A802F0EE
:1046B0009DFD9DF8600004280AD01498FFF77AFD4C
:1046C00010B1404602F034FC02F0E4FC3846B5E795
:1046D00002F0E0FC2046B1E73E00000041542B43CD
:1046E000495053454E443D25642C25642C222573A6
:1046F000222C25730D0A000041542B434950534589
:104700004E443D25642C25640D0A000053454E445B
:10471000204F4B0013B501231A4669460248FDF7A6
:1047200045FB00981CBD0000E405002010B502F018
:104730007DFEC0F1200010BD70B50D4D05EBC1131D
:1047400003EB820454F8843F836005F11006C660D1
:10475000D86020600124286A04FA01F31843286213
:1047600005EB810004FA02F3416A1943416270BD0E
:1047700070370020FEE700001FB50949094A0020F4
:10478000096812680923CDE90032CDE90210034619
:10479000054A06A1074803F0F5FA04B010BD000071
:1047A000108200080C8200087547000869646C6577
:1047B00000000000A80E00200349884201D101201A
:1047C0007047002070470000A80E002003480078C2
:1047D000002801D0012070470020704744000020CD
:1047E00003480078002801D001207047002070475E
:1047F0004500002003490968884201D10120704723
:1048000000207047500000204088884201D10120DC
:104810007047002070474088884201D101207047CE
:10482000002070474088884201D101207047002055
:1048300070474088884201D10120704700207047AE
:104840004088884201D10120704700207047000055
:1048500010B502F09DFE00281DD0FFF7B7FF00281D
:1048600019D1FFF7BDFF002815D102F0E3FD044682
:1048700001F068FE08490860FFF7BCFF20B1204640
:10488000BDE8104002F0D4BDFFF76EF92046BDE848
:10489000104002F0CDBD10BD540000204B680A4608
:1048A0001946FEF7F7B9D0E90010FEF7F8B910B5D0
:1048B00004462046FEF7F6F92046BDE81040AFF367
:1048C00000800060406070470168814201D1012092
:1048D00070470020704700001FB5FFF701F911A0D5
:1048E000FEF7C0F802F0F2FD15A0FEF7BBF81420A9
:1048F0004FF48061164A0323CDE90210CDE900325E
:1049000013480023134A14A1783803F03BFA0146F8
:1049100011B113A0FEF7A6F802F086FE04B0002045
:1049200010BD000057656C636F6D6520746F205477
:10493000656E63656E744F532074696E790D0A005D
:10494000637265617465207461736B310D0A0000D8
:1049500010010020ED6900087461736B31000000E4
:1049600054656E63656E744F532043726561746560
:10497000207461736B31206661696C2120636F6400
:1049800065203A202564200D0A00000070B5044619
:104990000D461646802C05D20020E11704EB9171DC
:1049A0008B1007E02046FEF79FF8411F0C4184F072
:1049B0002003801F2860336070BD70B504460D462B
:1049C0001646802C07D32046FEF78EF8431F0120A1
:1049D0009840401E0444324629462046BDE87040B7
:1049E000FFF7D4BF70B5104D00262E60002005EBF8
:1049F00080014E60401C0328F9DB0B4A1032AA618B
:104A0000EA612E62002105EB81004662002005EB81
:104A1000C11303EB8004C4F88420401C2028F8DB79
:104A2000491C1829EFDB70BD7037002070B50446B3
:104A30000D46FFF7D7FF29462046BDE8704002F03B
:104A400055BE000010B50021074A136807E002EBCD
:104A500081046468844201D1012010BD491C8B424D
:104A6000F5DC002010BD000070370020F92800D3CD
:104A7000F920F92900D9F921024A1368586310680E
:104A8000816370476406002030B587B01F481E4917
:104A900001604721416000248460F925C5600461FC
:104AA000FCF745FF08B1FCF701F91848FCF76AFF6D
:104AB0001648FDF70CF808B1FCF7F8F81348FCF7B6
:104AC0006FFF6020009001950294002269460F4814
:104AD000FCF790FF08B1FCF7E9F8042269460B489F
:104AE000FCF788FF08B1FCF7E1F800210748FDF763
:104AF0000BF804210548FDF707F80021084600F0EF
:104B000007F807B030BD0000000400406406002034
:104B1000642900D96421C1EBC102C2EB01216422E6
:104B2000B1FBF2F228B1012807D011460020FFF7AF
:104B30009DBF00210846FFF799BF00211046FFF7EF
:104B400095BF2DE9F0470646089F884691461D46C9
:104B500005F1200001F05AFB044620001AD0FFF7AF
:104B6000B0FE04F10800824601F0CCFB5046F1682B
:104B700001F0C0FBC4F80C80A4F81090258304F168
:104B80002000E06167612A46B168FBF765FB2046BB
:104B9000BDE8F0870020FBE710B50446002C07D0E5
:104BA0002046FFF780FE2046BDE8104001F030BBF4
:104BB00010BDC078402801D3012070470020704705
:104BC000FEB505460C4602A801F09CFB02A8E96868
:104BD00001F090FB04F10800E96801F08BFB05F19E
:104BE0002800064601F018FB228BE169A868FBF754
:104BF00033FB218B02AA284600F097FE208AE16849
:104C0000CDE90010064B4FF4A97206A10FA0FDF7E5
:104C100029FF1BA0FDF726FF304601F0FFFAFEBD7D
:104C2000288200082E2E5C6D717474636C69656E49
:104C3000745C6D717474636C69656E745C6D7174B1
:104C400074636C69656E742E6300000025733A25E9
:104C50006420257328292E2E2E20726573656E64BC
:104C6000202564207061636B6167652C207061632F
:104C70006B65745F696420697320256420000000FF
:104C80000A0000002DE9F04104460D46164604F1E5
:104C900070000746FFF718FE10B10020BDE8F08154
:104CA000236F1C6809E0188AB04204D1D868A84272
:104CB00001D10120F2E723461C68BB42F3D100205A
:104CC000ECE72DE9F8430646089C0F4690469946C6
:104CD0000025424639463046FFF7D4FF18B16FF041
:104CE0001600BDE8F8834B464246394630460094EC
:104CF000FFF727FF04464CB1304600F05FF806F19D
:104D000070012046FFF7CAFD2846EAE76FF002006F
:104D1000E7E72DE9F041064606F170000746FFF788
:104D2000D3FD00281DD1304600F0B0F9012818D17C
:104D3000306F056813E0044604F1080001F0E5FA5D
:104D400058B1E268042A0ED0052A0CD0062A0AD0EF
:104D5000072A08D02046FFF71FFF28460568B842FB
:104D6000E9D1BDE8F08121463046FFF729FFF4E79D
:104D70002DE9F04706460F4690461D4606F17000A5
:104D80008146FFF7A1FD10B10020BDE8F087306F2C
:104D900004680FE0018A41450AD1C168B94207D1D0
:104DA0000DB141692960FFF7F7FE304600F0AAFE19
:104DB000204604684845EDD10020E6E770B504467A
:104DC00004F14800054601F027FAE078401CE07045
:104DD0002846BDE8704001F021BA70B5054605F1DE
:104DE00070000646FFF770FD58B9286F046803E0AD
:104DF00001F00EFA20460468B042F9D13046FFF7C0
:104E000056FD05F168000646FFF75EFD00280FD14C
:104E1000A86E0468002504E0C56001F0F9F9204699
:104E20000468B042F8D13046BDE87040FFF73FBD9E
:104E300070BD00F001B800002DE9F0419AB00446C1
:104E40006FF003060027189758224F4902A8FBF776
:104E500003FAA4B1204600F019F9012812D019A8CC
:104E600001F050FA19A8E16801F044FAA06FC16896
:104E700088470546280007D01AB0BDE8F0816FF0DA
:104E80000100F9E70020F7E73F4B40F25F321D3B9E
:104E90003EA148A0FDF7E6FD50A0FDF7E3FD54F864
:104EA0008C0F008CADF82000206890F822008DF85F
:104EB0002200206890F823008DF810002068006818
:104EC000059020684068129020688068159054F81A
:104ED0008C09018C4FF47A70414304F1880001F091
:104EE00009FA04F12800804601F096F902AA6169E6
:104EF000A068FDF751F900280EDD014619AA2046E9
:104F000000F013FD051E07D119AA0221204600F06A
:104F10003CFF02280AD03546ADB10021204600F002
:104F200038FD404601F07AF92846A5E718A9481C43
:104F300023696268FCF7CCFF012801D03546EBE716
:104F40009DF86050E8E7E06F28B10121204600F0AD
:104F500020FDA770E5E732200521CDE900104FF4D0
:104F6000006322461E491FA001F09BF9E06700285C
:104F7000EFD00121204600F00CFDE06F01F0B7F901
:104F8000E06F01F0B2F9E4E7B48200082E2E5C6D08
:104F9000717474636C69656E745C6D717474636C48
:104FA00069656E745C6D717474636C69656E742E82
:104FB0006300000025733A256420257328292E2ECE
:104FC0002E206D71747420636F6E6E656374207330
:104FD0007563636573732E2E2E0000000A000000B7
:104FE000A15E00086D7174745F7969656C645F74AB
:104FF00068726561640000002DE9F84307460E46BB
:10500000904601240025002030606D1C042D13DC27
:10501000B86F43460122D0F814C06946E047012822
:105020000AD19DF80000316800F07F0202FB0411F4
:105030003160E4010006E8D42846BDE8F8832DE994
:10504000F04192B080460D4616464FF0FF37294694
:10505000404600F01EF80446A4B13246294601A895
:1050600000F028FA226901A9404690470027F0681D
:10507000FBF728F90146F068FBF707F9D5E90110BD
:10508000FBF703F912B03846BDE8F08190F924002F
:1050900070472DE9F0410F46846E256800F16806DF
:1050A0000FE0E16859B13846FDF719F820B93946E3
:1050B000E06800F038FD10B12046BDE8F0812C46D4
:1050C0002568B442EDD10020F7E770B5044604F13D
:1050D0004800054601F0A0F82088A0F57F41FE3980
:1050E00006D0401C2080284601F098F8208870BD2A
:1050F0000120F7E770B505460C46002D3CD0CCB337
:1051000090212846FBF7C1F81C2001F07FF8A86722
:105110006FF0020678B31C21FBF7B7F8606831091D
:105120004FF48062022801D9884200D36260A068EF
:10513000022802D96068884200D3A260606801F04A
:1051400065F86860A06801F061F8A860696811B34B
:1051500008B360682861A068686101202880206821
:1051600044F63922A0F57A71914220D34FF47A6047
:10517000E8601DE000E002E06FF0010070BD354B1B
:1051800040F2B73234A13EA0FDF76CFC46A0FDF71B
:1051900069FC304670BD2F4B40F2C5322EA143A0B2
:1051A000FDF760FC40A0FDF75DFC304670BDE86097
:1051B0000020A870E87085F82400208F08B96420CA
:1051C000208794F83B0010B9042084F83B00E06885
:1051D00010B94FF47A70E060A069FBF773F8606271
:1051E000E069FBF76FF8A062206AFBF76BF8E062FA
:1051F00004F11800C5F88C00E168A961218F0184D1
:105200002069E8616069286204F13C01A86F00F040
:105210001FFF0028CADB05F16800FFF752FB05F10C
:105220007000FFF74EFB05F1280000F0F3FF05F1D9
:10523000480000F0EFFF05F1800001F063F805F190
:10524000840001F05FF805F1880001F05BF80020B0
:1052500070BD00001C8300082E2E5C6D7174746399
:105260006C69656E745C6D717474636C69656E7481
:105270005C6D717474636C69656E742E63000000FC
:1052800025733A256420257328292E2E2E206D6142
:105290006C6C6F63206E6574776F726B20666169EA
:1052A0006C65642E2E2E00000A00000025733A253E
:1052B0006420257328292E2E2E206D616C6C6F635F
:1052C00020627566206661696C65642E2E2E000072
:1052D00070B506460D462846FAF7F4FF04463046F8
:1052E000FAF7F0FFA04201D0002070BD2246294607
:1052F0003046FAF7EEFF08B1002070BD012070BD06
:1053000038B50446002504F1840000F0FEFF28B9FA
:1053100004F1880000F0F9FF00281ED0A07860B1E9
:105320000F4B40F29F320FA118A0FDF79BFB1FA06F
:10533000FDF798FB4FF0FF350FE06169A068FDF7BE
:1053400002F80146002908DD6A46204600F0EDFA21
:10535000051E02D1A078401CA070284638BD000070
:105360000C8300082E2E5C6D717474636C69656E1D
:10537000745C6D717474636C69656E745C6D71746A
:1053800074636C69656E742E6300000025733A25A2
:105390006420257328292E2E2E2070696E67206FB9
:1053A00075747374616E64696E6700000A000000B2
:1053B0002DE9F04107460D461646142000F026FF61
:1053C000044644B12046FFF77CFA25722661E76067
:1053D0002046BDE8F0810020FBE710B50446002C14
:1053E00007D02046FFF75FFA2046BDE8104000F0E6
:1053F0000FBF10BD2DE9FC4104460E46002C09D01C
:1054000046B104F168000746FFF75EFA20B10020BC
:10541000BDE8FC810020FBE7A46E256817E0E0688A
:1054200098B1F168FFF754FF78B1F068E168CDE911
:105430000010094B40F2C11208A11248FDF712FBFF
:1054400011A0FDF70FFB0120E2E72C462568BC42C6
:10545000E5D10020DCE70000408200082E2E5C6DC4
:10546000717474636C69656E745C6D717474636C73
:1054700069656E745C6D717474636C69656E742EAD
:10548000630000007C8300080A00000070B5044639
:105490000D4629462046FFF7ADFF20B12846FFF70D
:1054A0009CFF002070BD04F168012846FFF7F6F963
:1054B000002070BD70B5054616464C683F2C00DBD9
:1054C0003F24896822462846FAF7C6FE0020285560
:1054D0002E6470BD2DE9F04105468846174600242C
:1054E0002E69BE4200D93E46404600F01BFF0346EF
:1054F000A86F69683246D0F814C0E04728B1044468
:105500002E69391BB14200D20E46BC4201DA002896
:10551000EAD1BDE8F081F8B506460F4600250095B2
:105520003A466946304600F09BF9044600980E283A
:1055300031D2DFE800F026302619071F1F07300D93
:10554000301330253946304600F029F8044618E07B
:105550003946304600F04FFA044612E039463046EC
:1055600000F0F4FB04460CE03946304600F0E3F866
:10557000044606E03946304600F052F9044600E0A1
:10558000B5703046FFF7BCFE28B10221304600F06E
:1055900000FA6FF00D0404B9009C2046F8BD1FB559
:1055A000044603AA2069009002A901A86368FCF7D9
:1055B0006AFC0023BDF80C209DF804102046FFF77C
:1055C000D7FB04B010BD2DE9F0438BB0074614465D
:1055D0004FF0FF354FF00008CDF82080CDF8248043
:1055E00007913846FFF752FD07F12809012802D03C
:1055F0006FF00D0554E0E06820B1A16811B9FAF729
:1056000061FEA060484600F007FE2078012801D026
:1056100002280AD13846FFF7CCFA10B16FF0150511
:105620003EE03846FFF751FDA080D4E90210CDE9F5
:10563000050107A802AB07C807C3A0886178CDE9B8
:105640000010237800227969B868FCF77FFE0646CF
:10565000002E25DD0AAA3146384600F066F9051EFF
:105660001ED12078E0B10121384600F0A1F9207860
:10567000012802D002280AD012E0CDF80080B3B28F
:10568000A28804213846FFF71CFB054608E0CDF848
:105690000080B3B2A28805213846FFF712FB054609
:1056A000484600F0BBFD0BB02846BDE8F0832DE96D
:1056B000FC4104460F46154601A800F023FE01A850
:1056C000E16800F017FE04F12800804600F0A4FD18
:1056D000052D04D0062D15D06FF0090525E00097A3
:1056E000002306226169A068FCF72AFD0646002017
:1056F0000090B3B23A4607212046FFF7E2FA05468A
:105700009DB907E00097002307226169A068FCF7B4
:1057100017FD0646002E02DC6FF00A0505E001AA1F
:105720003146204600F001F90546404600F076FD7E
:105730002846BDE8FC812DE9F0438DB0044688463B
:10574000002500260027089708AA09AB6168206990
:10575000CDE90132CDE903100AA8009006A8031D87
:10576000421C05A9801CFCF7E3FB012804D06FF064
:1057700010000DB0BDE8F0830598C0B28DF8180098
:1057800070B304F12800814600F046FD9DF8180032
:10579000012802D002280BD014E0BDF81C000090B4
:1057A000002304226169A068FCF7CAFC054609E0F1
:1057B000BDF81C000090002305226169A068FCF779
:1057C000BFFC0546002D02DC6FF0110605E04246E5
:1057D0002946204600F0A9F80646484600F01EFD7E
:1057E000002E01DA3046C4E79DF81800022805D0E3
:1057F00006AA0AA92046FFF722FC0FE0ABB20097E9
:10580000BDF81C2006212046FFF75BFA064617303C
:1058100004D006AA0AA92046FFF711FC3046A8E7E3
:105820001FB5044603AA2069009002A901A8636875
:10583000FCF729FB012803D06FF0080004B010BD6D
:105840009DF80420BDF80C102046FFF730FF002320
:10585000BDF80C209DF804102046FFF789FAEDE70B
:105860002DE9FC4104460E46174600200190012513
:105870000090002E17D0384600F044FD3846E1680D
:1058800000F038FD384600F04DFD0346A06F61681A
:105890002A46D0F814C0E0476FF00608012805D06A
:1058A0004046BDE8FC816FF00100FAE7384600F0A1
:1058B00039FD024669462046FFF79EFB6068009965
:1058C000401CFCF7F7FB451C009A2169A818884288
:1058D00006D939462046FFF7FDFD6FF00700E0E7E7
:1058E000002A0EDD384600F01DFD03466068009A70
:1058F0004119A06F4569A8470099884201D04046E8
:10590000CFE7606800788DF804000198C0F30310B9
:105910003060D4F88C00018C4FF47A70414304F16C
:10592000880000F0E7FC0020BBE72DE9F0410546C8
:105930000F4690460024404600F0E4FC4046E968EB
:1059400000F0D8FC0CE0404600F0ECFC0346A868F0
:105950003A460119A86F8669B047002807DD04445C
:10596000BC4204DA404600F0D0FC0028EBD0BC4238
:105970000CD1D5F88C00018C4FF47A70414305F1BD
:10598000840000F0B7FC0020BDE8F0816FF0120049
:10599000FAE770B504460D4604F14800064600F0EB
:1059A0003BFC84F824503046BDE8704000F036BC23
:1059B0003EB50C46806802900190002100916FF086
:1059C000180500280BD002A800F04AFD8DF8000051
:1059D0000098C0F30311032903D028463EBD284692
:1059E0003EBD64F3C30000909DF8001001A802F0D2
:1059F000C9FB00203EBD30B587B0054600200690AB
:105A00000590039029696868CDE9000105AB06AAF5
:105A1000012104A8FCF7D4FA012803D06FF00C0090
:105A200007B030BD059880280FD0002403ABBDF827
:105A3000102009212846FFF79BF9039838B14CB193
:105A4000FFF7CBFC6FF00E00EAE70124EEE76FF002
:105A50000200E5E701462846FFF718FDE0E70000F1
:105A60002DE9FF4788B005460F461E466FF0130A22
:105A700000200590069004972846FFF707FB0128B1
:105A800004D06FF00D000CB0BDE8F08705F12800E0
:105A9000814600F0C1FB2846FFF717FB804604A9AA
:105AA0000122CDE900210AA802904346002269693B
:105AB000A868FCF79DFC0446002C18DD07AA2146C7
:105AC0002846FFF732FFB0F1000A10D106B90C4E9C
:105AD0009DF8281032463846FFF76AFC60B1009006
